S017000041546D6567613332206472697665722E73726563CD
S11300000C943E000C9439050C9447050C9465053A
S11300100C945B000C945B000C945B000C945B00F0
S11300200C945B000C945B000C945B000C945B00E0
S11300300C945B000C945B000C945B000C945B00D0
S11300400C945B000C945B000C945B000C945B00C0
S11300500C945B009900AD00C100D500E900FD00DF
S11300601101250139014D016E0182019601AA0198
S1130070BE01D201E601FA010E02220211241FBEC2
S1130080CFE5D8E0DEBFCDBF10E0A0E6B0E0ECEFF6
S1130090F3E102C005900D92A037B107D9F720E033
S11300A0A0E7B0E001C01D92A438B207E1F70E94B6
S11300B0E5050C94FC090C940000CF93C82F611142
S11300C013C041E00E948F0241E061E08C2F0E9446
S11300D08F0241E062E08C2F0E948F0241E063E0D6
S11300E08C2F0E948F0215C0613099F441E064E0C6
S11300F00E948F0241E065E08C2F0E948F0241E054
S113010066E08C2F0E948F0241E067E08C2F0E94F2
S11301108F02CF910895CF93C82F6111D2C050E0C0
S11301204A30510508F0A1C1FA01E65DFF4F0C9475
S1130130D30940E060E00E94FF0240E061E08C2FC0
S11301400E94FF0240E062E08C2F0E94FF0240E028
S113015063E08C2F0E94FF0288C141E060E00E94AE
S1130160FF0240E061E08C2F0E94FF0240E062E069
S11301708C2F0E94FF0240E063E08C2F0E94FF025C
S113018074C140E060E00E94FF0241E061E08C2F16
S11301900E94FF0240E062E08C2F0E94FF0240E0D8
S11301A063E08C2F0E94FF0260C141E060E00E9486
S11301B0FF0241E061E08C2F0E94FF0240E062E018
S11301C08C2F0E94FF0240E063E08C2F0E94FF020C
S11301D04CC140E060E00E94FF0240E061E08C2FEF
S11301E00E94FF0241E062E08C2F0E94FF0240E087
S11301F063E08C2F0E94FF0238C141E060E00E945E
S1130200FF0240E061E08C2F0E94FF0241E062E0C7
S11302108C2F0E94FF0240E063E08C2F0E94FF02BB
S113022024C140E060E00E94FF0241E061E08C2FC5
S11302300E94FF0241E062E08C2F0E94FF0240E036
S113024063E08C2F0E94FF0210C141E060E00E9435
S1130250FF0241E061E08C2F0E94FF0241E062E076
S11302608C2F0E94FF0240E063E08C2F0E94FF026B
S1130270FCC040E060E00E94FF0240E061E08C2F9F
S11302800E94FF0240E062E08C2F0E94FF0241E0E6
S113029063E08C2F0E94FF02E8C041E060E00E940E
S11302A0FF0240E061E08C2F0E94FF0240E062E028
S11302B08C2F0E94FF0241E063E08C2F0E94FF021A
S11302C0D4C0613009F0D1C050E04A30510508F083
S11302D0CCC0FA01EC5CFF4F0C94D30940E064E01D
S11302E00E94FF0240E065E08C2F0E94FF0240E084
S11302F066E08C2F0E94FF0240E067E08C2F0E9492
S1130300FF02B3C041E064E00E94FF0240E065E008
S11303108C2F0E94FF0240E066E08C2F0E94FF02B7
S113032040E067E08C2F0E94FF029FC040E064E041
S11303300E94FF0241E065E08C2F0E94FF0240E032
S113034066E08C2F0E94FF0240E067E08C2F0E9441
S1130350FF028BC041E064E00E94FF0241E065E0DF
S11303608C2F0E94FF0240E066E08C2F0E94FF0267
S113037040E067E08C2F0E94FF0277C040E064E019
S11303800E94FF0240E065E08C2F0E94FF0241E0E2
S113039066E08C2F0E94FF0240E067E08C2F0E94F1
S11303A0FF0263C041E064E00E94FF0240E065E0B8
S11303B08C2F0E94FF0241E066E08C2F0E94FF0216
S11303C040E067E08C2F0E94FF024FC040E064E0F1
S11303D00E94FF0241E065E08C2F0E94FF0241E091
S11303E066E08C2F0E94FF0240E067E08C2F0E94A1
S11303F0FF023BC041E064E00E94FF0241E065E08F
S11304008C2F0E94FF0241E066E08C2F0E94FF02C5
S113041040E067E08C2F0E94FF0227C040E064E0C8
S11304200E94FF0240E065E08C2F0E94FF0240E042
S113043066E08C2F0E94FF0241E067E08C2F0E944F
S1130440FF0213C041E064E00E94FF0240E065E067
S11304508C2F0E94FF0240E066E08C2F0E94FF0276
S113046041E067E08C2F0E94FF02CF91089597B17D
S1130470906497B98823B1F1813021F487B1816008
S113048087B930C0823021F487B1826087B92AC02D
S1130490833039F487B1816087B987B1826087B9C5
S11304A021C0843021F487B1846087B91BC08530B2
S11304B039F487B1816087B987B1846087B912C084
S11304C0863039F487B1826087B987B1846087B98F
S11304D009C087B1816087B987B1826087B987B164
S11304E0846087B986B1806886B986B1846086B92C
S11304F086B1826086B90895877097B1907E97B966
S113050097B1892B87B986B1806486B93699FECFB5
S113051024B185B190E0982F8827822B08958234E6
S113052019F118F4813439F008958334B1F1843425
S113053009F44CC00895413059F42AB381E090E0A5
S113054002C0880F991F6A95E2F7822B8ABB08952F
S11305502AB381E090E002C0880F991F6A95E2F700
S1130560809582238ABB0895413059F427B381E0F2
S113057090E002C0880F991F6A95E2F7822B87BB2F
S1130580089527B381E090E002C0880F991F6A950F
S1130590E2F78095822387BB0895413059F424B350
S11305A081E090E002C0880F991F6A95E2F7822BE0
S11305B084BB089524B381E090E002C0880F991FA2
S11305C06A95E2F78095822384BB0895413059F4FB
S11305D021B381E090E002C0880F991F6A95E2F789
S11305E0822B81BB089521B381E090E002C0880F83
S11305F0991F6A95E2F78095822381BB089582341E
S113060019F118F4813439F008958334B1F1843444
S113061009F44CC00895413059F42BB381E090E0C3
S113062002C0880F991F6A95E2F7822B8BBB08954D
S11306302BB381E090E002C0880F991F6A95E2F71E
S1130640809582238BBB0895413059F428B381E00F
S113065090E002C0880F991F6A95E2F7822B88BB4D
S1130660089528B381E090E002C0880F991F6A952D
S1130670E2F78095822388BB0895413059F425B36D
S113068081E090E002C0880F991F6A95E2F7822BFF
S113069085BB089525B381E090E002C0880F991FBF
S11306A06A95E2F78095822385BB0895413059F419
S11306B022B381E090E002C0880F991F6A95E2F7A7
S11306C0822B82BB089522B381E090E002C0880FA0
S11306D0991F6A95E2F78095822382BB089582343C
S11306E059F018F4813431F00895833439F08434A6
S11306F039F008956ABB089567BB089564BB0895F3
S113070061BB0895823459F018F4813431F00895AE
S1130710833439F0843439F008956BBB089568BB91
S1130720089565BB089562BB0895813041F018F0C7
S1130730823049F008958BB780648BBF08958BB7DE
S113074080688BBF08958BB780628BBF089581301A
S113075049F120F0823009F448C008956130C1F0B5
S113076068F0633009F053C08FB780688FBF85B7D6
S1130770816085BF85B78D7F85BF08958FB78068F9
S11307808FBF85B78E7F85BF85B7826085BF08958B
S11307908FB780688FBF85B7816085BF85B782605A
S11307A085BF08956130B9F060F0633081F58FB78B
S11307B080688FBF85B7846085BF85B7877F85BF15
S11307C008958FB780688FBF85B78B7F85BF85B746
S11307D0886085BF08958FB780688FBF85B78460B0
S11307E085BF85B7886085BF0895662319F0613099
S11307F041F008958FB780688FBF84B7806484BF49
S113080008958FB780688FBF84B78F7B84BF0895A6
S113081041E060E084E40E94FF028FE99FE00197D9
S1130820F1F700C0000040E060E084E40E94FF02B1
S11308308FE99FE00197F1F700C000000895682F49
S113084083E40E94820340E061E081E40E94FF02AD
S11308500E9408048FEC97E00197F1F700C00000B4
S113086008952FEF81EE94E0215080409040E1F70D
S113087000C0000061E083E40E946F0341E060E097
S113088084E40E948F0241E061E081E40E948F02CF
S113089041E061E084E40E948F0240E061E084E48E
S11308A00E94FF0288E30E941F048FEC97E00197E7
S11308B0F1F700C000008EE00E941F048FEC97E067
S11308C00197F1F700C0000081E00E941F048FE14E
S11308D09EE40197F1F700C0000086E00E941F0427
S11308E08FEC97E00197F1F700C000000895682F9E
S11308F083E40E94820341E061E081E40E94FF02FC
S11309000E94080408951F93CF93DF93CDB7DEB7F9
S11309102A970FB6F894DEBF0FBECDBFFC01892B1A
S113092099F54AC09F01ADECBCEC0E94D90996959B
S1130930879596958795969587959C01220F331FE9
S1130940880F991F880F991F880F991F820F931F73
S11309509F01281B390BA1E0B0E0AC0FBD1FA10F14
S1130960B11D17FDBA952C931F5F9F01ADECBCEC34
S11309700E94D909FC01F695E795F695E795F69559
S1130980E7954F5F5F4F03C040E050E010E03097C1
S113099049F61FEF140F0DC0E1E0F0E0EC0FFD1F6E
S11309A0E10FF11D17FDFA958081805D0E947704A7
S11309B0115011238CF704C080E38E0F0E9477043A
S11309C02A960FB6F894DEBF0FBECDBFDF91CF914C
S11309D01F910895CF93DF93EC0103C00E94770425
S11309E0219688818111FACFDF91CF91089581E01A
S11309F00E941F048FE19EE40197F1F700C00000FC
S1130A0008959FEF980F9430C0F46131C0F46623C9
S1130A10C1F0813019F48FE7860F16C0823019F4C3
S1130A208FEB860F11C0833019F483E9860F0CC055
S1130A30843049F483ED860F07C080E805C080E860
S1130A4003C080E801C080E80E941F048FEC97E097
S1130A500197F1F700C00000089541E00E948F0261
S1130A60089541E00E94FF02089540E00E94FF02C1
S1130A7008951F920F920FB60F92112410927500D1
S1130A80109274000F900FBE0F901F9018951F9234
S1130A900F920FB60F9211242F938F939F932FEFE2
S1130AA081EE94E0215080409040E1F700C00000C6
S1130AB0809175008F5F809375009F918F912F9126
S1130AC00F900FBE0F901F9018951F920F920FB6A4
S1130AD00F9211242F938F939F932FEF81EE94E025
S1130AE0215080409040E1F700C0000080917400E4
S1130AF08F5F809374009F918F912F910F900FBE01
S1130B000F901F9018954F925F926F927F92AF92C1
S1130B10BF92CF92DF92EF92FF920F931F93CF93E6
S1130B20DF93CDB7DEB728970FB6F894DEBF0FBEBC
S1130B30CDBF29013A01ED82FE820F8318870E94FE
S1130B40860769837A838B839C83A6019501698DCB
S1130B507A8D8B8D9C8D0E9486079B01AC016981E7
S1130B607A818B819C810E942E0969837A838B838D
S1130B709C83A3019201C801B7010E9486079B01CF
S1130B80AC0169817A818B819C810E94F3079B016E
S1130B90AC01C601B5010E9487070E946508CB011C
S1130BA028960FB6F894DEBF0FBECDBFDF91CF916C
S1130BB01F910F91FF90EF90DF90CF90BF90AF9077
S1130BC07F906F905F904F90089580E00E9437026D
S1130BD087E00E94370260E082E40E942D0561E014
S1130BE082E40E942D050E94310461E084E40E94A5
S1130BF05D0061E082E40E945D0080E00E94950354
S1130C0061E080E00E94A70381E00E94950361E017
S1130C1081E00E94A70382E00E94950361E082E0E4
S1130C200E94A7038CE00E941F041092600080E0E1
S1130C300E947C0290937B0080937A0087E00E945C
S1130C407C02BC0180E090E00E949B0824E42F9386
S1130C502FE72F9320EC2F931F92A12CB12C650129
S1130C60E12C10ECF12E03E714E420E030E040E244
S1130C7051E40E9483050F900F900F900F90BC01D8
S1130C80990F880B990B0E949D08609376007093CE
S1130C907700809378009093790020E030EC4FE760
S1130CA054E40E94F30720E030E048EC52E40E9450
S1130CB02E0960938000709381008093820090934A
S1130CC0830060917A0070917B00CB01880F991F9B
S1130CD0880F991F680F791F072E000C880B990B3A
S1130CE00E949D082AE037ED43E251E40E94F30795
S1130CF060937C0070937D0080937E0090937F00CE
S1130D0020E030E040EF51E40E94290988232CF0D0
S1130D1060E082E40E94310504C060E082E40E9445
S1130D2035056091800070918100809182009091DE
S1130D30830020E030E04CE852E40E942909882333
S1130D402CF061E082E40E94310504C061E082E499
S1130D500E9435058091750080FF26C020E030E0B8
S1130D6040E151E460917C0070917D0080917E00AF
S1130D7090917F000E942E0920E030E040EA50E488
S1130D800E94F30720E030E040E052E40E9487072D
S1130D9060937C0070937D0080937E0090937F002D
S1130DA086E48093600003C083E4809360000E9423
S1130DB0F7048091740080FD4DC061E081E00E94E1
S1130DC0010581E690E00E94EA0460917C00709144
S1130DD07D0080917E0090917F000E946C08CB0181
S1130DE00E948304809160000E94770460918000D7
S1130DF07091810080918200909183000E94650827
S1130E0070937100609370006436710559F449E081
S1130E1061E084E40E948B0049E061E082E40E9486
S1130E208B006AC0CAE0D0E0CB01BE010E94BF09BA
S1130E30462F61E084E40E948B00809170009091C1
S1130E407100BE010E94BF09482F61E082E40E9444
S1130E508B0052C061E081E00E94010588E690E0C9
S1130E600E94EA0460918000709181008091820068
S1130E70909183000E946C08CB010E94830485E258
S1130E800E947704C0907C00D0907D00E0907E00AA
S1130E90F0907F00C701B6010E946508709373004B
S1130EA060937200633671055CF049E061E084E4AC
S1130EB00E948B0049E061E082E40E948B001CC028
S1130EC020E030E040E251E4C701B6010E94F3079C
S1130ED00E946C08462F61E084E40E948B0080919C
S1130EE07200909173006AE070E00E94BF09482F7D
S1130EF061E082E40E948B002FEF84E39CE02150A8
S1130F0080409040E1F700C000008FCE5058BB27CE
S1130F10AA270E949E070C94EF080E94E10838F06B
S1130F200E94E80820F039F49F3F19F426F40C9449
S1130F30DE080EF4E095E7FB0C94D808E92F0E9434
S1130F40000958F3BA17620773078407950720F05E
S1130F5079F4A6F50C9422090EF4E0950B2EBA2F21
S1130F60A02D0B01B90190010C01CA01A0011124AB
S1130F70FF27591B99F0593F50F4503E68F11A1657
S1130F80F040A22F232F342F4427585FF3CF4695E8
S1130F9037952795A795F0405395C9F77EF41F160A
S1130FA0BA0B620B730B840BBAF09150A1F0FF0FD4
S1130FB0BB1F661F771F881FC2F70EC0BA0F621FC0
S1130FC0731F841F48F4879577956795B795F795B0
S1130FD09E3F08F0B0CF9395880F08F09927EE0F45
S1130FE09795879508950E9407080C94EF080E942E
S1130FF0E80858F00E94E10840F029F45F3F29F026
S11310000C94D80851110C9423090C94DE080E9406
S1131010000968F39923B1F3552391F3951B550BFC
S1131020BB27AA2762177307840738F09F5F5F4FB7
S1131030220F331F441FAA1FA9F335D00E2E3AF0F6
S1131040E0E832D091505040E695001CCAF72BD00E
S1131050FE2F29D0660F771F881FBB1F261737075F
S11310604807AB07B0E809F0BB0B802DBF01FF2791
S113107093585F4F3AF09E3F510578F00C94D8088E
S11310800C9423095F3FE4F3983ED4F38695779557
S11310906795B795F7959F5FC9F7880F911D96954A
S11310A0879597F90895E1E0660F771F881FBB1FA6
S11310B0621773078407BA0720F0621B730B840B53
S11310C0BA0BEE1F88F7E09508950E946C086894A7
S11310D0B1110C94230908950E94080988F09F57C0
S11310E098F0B92F9927B751B0F0E1F0660F771F48
S11310F0881F991F1AF0BA95C9F714C0B13091F03E
S11311000E942209B1E008950C942209672F782FD8
S11311108827B85F39F0B93FCCF386957795679502
S1131120B395D9F73EF490958095709561957F4F6E
S11311308F4F9F4F0895E89409C097FB3EF4909514
S11311408095709561957F4F8F4F9F4F9923A9F09C
S1131150F92F96E9BB279395F6958795779567952B
S1131160B795F111F8CFFAF4BB0F11F460FF1BC06F
S11311706F5F7F4F8F4F9F4F16C0882311F096E902
S113118011C0772321F09EE8872F762F05C06623B0
S113119071F096E8862F70E060E02AF09A95660F69
S11311A0771F881FDAF7880F9695879597F9089522
S11311B097F99F6780E870E060E008959FEF80EC06
S11311C0089500240A9416161706180609060895A9
S11311D000240A9412161306140605060895092E0F
S11311E00394000C11F4882352F0BB0F40F4BF2B7E
S11311F011F460FF04C06F5F7F4F8F4F9F4F0895BE
S113120057FD9058440F551F59F05F3F71F04795B3
S1131210880F97FB991F61F09F3F79F08795089598
S1131220121613061406551FF2CF4695F1DF08C0B7
S1131230161617061806991FF1CF869571056105D4
S113124008940895E894BB2766277727CB0197F97C
S113125008950E949B0908F48FEF08950E944109A4
S11312600C94EF080E94E10838F00E94E80820F08E
S1131270952311F00C94D8080C94DE0811240C94D6
S113128023090E94000970F3959FC1F3950F50E064
S1131290551F629FF001729FBB27F00DB11D639F24
S11312A0AA27F00DB11DAA1F649F6627B00DA11DCA
S11312B0661F829F2227B00DA11D621F739FB00D70
S11312C0A11D621F839FA00D611D221F749F3327E0
S11312D0A00D611D231F849F600D211D822F762F79
S11312E06A2F11249F5750409AF0F1F088234AF056
S11312F0EE0FFF1FBB1F661F771F881F91505040C2
S1131300A9F79E3F510580F00C94D8080C9423094A
S11313105F3FE4F3983ED4F3869577956795B79548
S1131320F795E7959F5FC1F7FE2B880F911D969562
S1131330879597F90895990F0008550FAA0BE0E8CF
S1131340FEEF16161706E807F907C0F01216130683
S1131350E407F50798F0621B730B840B950B39F4C3
S11313600A2661F0232B242B252B21F408950A2629
S113137009F4A140A6958FEF811D811D089597FB67
S1131380072E16F4009407D077FD09D00E94E809CF
S113139007FC05D03EF4909581959F4F0895709574
S11313A061957F4F0895EE0FFF1F0590F491E02D96
S11313B00994A29FB001B39FC001A39F700D811D2A
S11313C01124911DB29F700D811D1124911D08954A
S11313D0AA1BBB1B51E107C0AA1FBB1FA617B70757
S11313E010F0A61BB70B881F991F5A95A9F7809573
S10F13F09095BC01CD010895F894FFCF46
S11313FC4354656D703A20004C696768743A200058
S9030000FC
