:100000000C943E000C945B000C945B000C945B0021
:100010000C945B000C945B000C945B000C945B00F4
:100020000C945B000C945B000C945B000C945B00E4
:100030000C945B000C945B000C945B000C945B00D4
:100040000C945B000C945B000C945B000C945B00C4
:100050000C945B009900AD00C100D500E900FD00E3
:100060001101250139014D016E0182019601AA019C
:10007000BE01D201E601FA010E02220211241FBEC6
:10008000CFE5D8E0DEBFCDBF10E0A0E6B0E0EAE308
:10009000F8E002C005900D92A036B107D9F720E034
:1000A000A0E6B0E001C01D92A136B207E1F70E94C0
:1000B00087030C941B040C940000CF93C82F61118C
:1000C00013C041E00E943E0241E061E08C2F0E949B
:1000D0003E0241E062E08C2F0E943E0241E063E07C
:1000E0008C2F0E943E0215C0613099F441E064E01B
:1000F0000E943E0241E065E08C2F0E943E0241E0FA
:1001000066E08C2F0E943E0241E067E08C2F0E9447
:100110003E02CF910895CF93C82F6111D2C050E015
:100120004A30510508F0A1C1FA01E65DFF4F0C9479
:10013000150440E060E00E94AE0240E061E08C2FD8
:100140000E94AE0240E062E08C2F0E94AE0240E0CE
:1001500063E08C2F0E94AE0288C141E060E00E9403
:10016000AE0240E061E08C2F0E94AE0240E062E00F
:100170008C2F0E94AE0240E063E08C2F0E94AE0202
:1001800074C140E060E00E94AE0241E061E08C2F6B
:100190000E94AE0240E062E08C2F0E94AE0240E07E
:1001A00063E08C2F0E94AE0260C141E060E00E94DB
:1001B000AE0241E061E08C2F0E94AE0240E062E0BE
:1001C0008C2F0E94AE0240E063E08C2F0E94AE02B2
:1001D0004CC140E060E00E94AE0240E061E08C2F44
:1001E0000E94AE0241E062E08C2F0E94AE0240E02D
:1001F00063E08C2F0E94AE0238C141E060E00E94B3
:10020000AE0240E061E08C2F0E94AE0241E062E06D
:100210008C2F0E94AE0240E063E08C2F0E94AE0261
:1002200024C140E060E00E94AE0241E061E08C2F1A
:100230000E94AE0241E062E08C2F0E94AE0240E0DC
:1002400063E08C2F0E94AE0210C141E060E00E948A
:10025000AE0241E061E08C2F0E94AE0241E062E01C
:100260008C2F0E94AE0240E063E08C2F0E94AE0211
:10027000FCC040E060E00E94AE0240E061E08C2FF4
:100280000E94AE0240E062E08C2F0E94AE0241E08C
:1002900063E08C2F0E94AE02E8C041E060E00E9463
:1002A000AE0240E061E08C2F0E94AE0240E062E0CE
:1002B0008C2F0E94AE0241E063E08C2F0E94AE02C0
:1002C000D4C0613009F0D1C050E04A30510508F087
:1002D000CCC0FA01EC5CFF4F0C94150440E064E0E4
:1002E0000E94AE0240E065E08C2F0E94AE0240E02A
:1002F00066E08C2F0E94AE0240E067E08C2F0E94E7
:10030000AE02B3C041E064E00E94AE0240E065E0AE
:100310008C2F0E94AE0240E066E08C2F0E94AE025D
:1003200040E067E08C2F0E94AE029FC040E064E096
:100330000E94AE0241E065E08C2F0E94AE0240E0D8
:1003400066E08C2F0E94AE0240E067E08C2F0E9496
:10035000AE028BC041E064E00E94AE0241E065E085
:100360008C2F0E94AE0240E066E08C2F0E94AE020D
:1003700040E067E08C2F0E94AE0277C040E064E06E
:100380000E94AE0240E065E08C2F0E94AE0241E088
:1003900066E08C2F0E94AE0240E067E08C2F0E9446
:1003A000AE0263C041E064E00E94AE0240E065E05E
:1003B0008C2F0E94AE0241E066E08C2F0E94AE02BC
:1003C00040E067E08C2F0E94AE024FC040E064E046
:1003D0000E94AE0241E065E08C2F0E94AE0241E037
:1003E00066E08C2F0E94AE0240E067E08C2F0E94F6
:1003F000AE023BC041E064E00E94AE0241E065E035
:100400008C2F0E94AE0241E066E08C2F0E94AE026B
:1004100040E067E08C2F0E94AE0227C040E064E01D
:100420000E94AE0240E065E08C2F0E94AE0240E0E8
:1004300066E08C2F0E94AE0241E067E08C2F0E94A4
:10044000AE0213C041E064E00E94AE0240E065E00D
:100450008C2F0E94AE0240E066E08C2F0E94AE021C
:1004600041E067E08C2F0E94AE02CF91089540E0FA
:100470000E943E0208950E941E030895823419F1DD
:1004800018F4813439F008958334B1F1843409F4D7
:100490004CC00895413059F42AB381E090E002C085
:1004A000880F991F6A95E2F7822B8ABB08952AB3B9
:1004B00081E090E002C0880F991F6A95E2F780956D
:1004C00082238ABB0895413059F427B381E090E03C
:1004D00002C0880F991F6A95E2F7822B87BB0895A7
:1004E00027B381E090E002C0880F991F6A95E2F778
:1004F0008095822387BB0895413059F424B381E06D
:1005000090E002C0880F991F6A95E2F7822B84BBA6
:10051000089524B381E090E002C0880F991F6A9586
:10052000E2F78095822384BB0895413059F421B3CA
:1005300081E090E002C0880F991F6A95E2F7822B54
:1005400081BB089521B381E090E002C0880F991F1C
:100550006A95E2F78095822381BB0895823419F170
:1005600018F4813439F008958334B1F1843409F4F6
:100570004CC00895413059F42BB381E090E002C0A3
:10058000880F991F6A95E2F7822B8BBB08952BB3D6
:1005900081E090E002C0880F991F6A95E2F780958C
:1005A00082238BBB0895413059F428B381E090E059
:1005B00002C0880F991F6A95E2F7822B88BB0895C5
:1005C00028B381E090E002C0880F991F6A95E2F796
:1005D0008095822388BB0895413059F425B381E08A
:1005E00090E002C0880F991F6A95E2F7822B85BBC5
:1005F000089525B381E090E002C0880F991F6A95A5
:10060000E2F78095822385BB0895413059F422B3E7
:1006100081E090E002C0880F991F6A95E2F7822B73
:1006200082BB089522B381E090E002C0880F991F39
:100630006A95E2F78095822382BB08958234E9F0BF
:1006400018F4813431F055C0833459F18434E9F120
:1006500050C049B381E090E09C01062E02C0220FF9
:10066000331F0A94E2F7842F90E08223932302C081
:10067000959587956A95E2F7089546B381E090E0F5
:100680009C01062E02C0220F331F0A94E2F7842F2A
:1006900090E08223932302C0959587956A95E2F7AF
:1006A000089543B381E090E09C01062E02C0220F22
:1006B000331F0A94E2F7842F90E08223932302C031
:1006C000959587956A95E2F7089540B381E090E0AB
:1006D0009C01062E02C0220F331F0A94E2F7842FDA
:1006E00090E08223932302C0959587956A95E2F75F
:1006F000089580E0089541E00E943E02089541E09F
:100700000E94AE02089540E00E94AE02089560E0AB
:1007100083E40E945D0061E083E40E945D0066E086
:1007200082E40E947B0367E082E40E947B0360E036
:1007300081E40E94370266E081E40E94370263E0B0
:1007400082E40E94370260E081E40E943B02813033
:1007500071F42FEF84E39CE0215080409040E1F75A
:1007600000C00000809160008F5F8093600066E0B1
:1007700081E40E943B02813071F42FEF84E39CE01E
:10078000215080409040E1F700C00000809160005F
:1007900081508093600063E082E40E943B028130DC
:1007A00059F42FEF84E39CE0215080409040E1F722
:1007B00000C000001092600080916000982F91703E
:1007C00080FD09C066E082E40E947F0367E082E466
:1007D0000E9483030AC0992341F066E082E40E94EC
:1007E000830367E082E40E947F0340916000CDECC8
:1007F0004C9F812D1124869586958695880F982F7C
:10080000990F990F890F481B60E083E40E948B00C9
:10081000409160004C9F412D112446954695469588
:1008200061E083E40E948B008ECFEE0FFF1F0590E6
:0A083000F491E02D0994F894FFCF35
:00000001FF
