S017000041546D6567613332206472697665722E73726563CD
S11300000C942A000C9447000C9447000C94A7030A
S11300100C9447000C9447000C9447000C94470040
S11300200C9447000C9447000C9447000C94470030
S11300300C9447000C9447000C9447000C94470020
S11300400C9447000C9447000C9447000C94470010
S11300500C94470011241FBECFE5D8E0DEBFCDBF0E
S113006010E0A0E6B0E0E6EFFBE002C005900D92E0
S1130070A836B107D9F720E0A8E6B0E001C01D9288
S1130080AD36B207E1F70E940E030C94F9050C9407
S1130090000097B1906497B98823B1F1813021F4BD
S11300A087B1816087B930C0823021F487B1826022
S11300B087B92AC0833039F487B1816087B987B1A1
S11300C0826087B921C0843021F487B1846087B904
S11300D01BC0853039F487B1816087B987B18460EA
S11300E087B912C0863039F487B1826087B987B185
S11300F0846087B909C087B1816087B987B182609C
S113010087B987B1846087B986B1806886B986B1BA
S1130110846086B986B1826086B9089586B18064A8
S113012086B93699FECF24B185B190E0982F8827FF
S1130130822B0895823419F118F4813439F008952A
S11301408334B1F1843409F44CC00895413059F436
S11301502AB381E090E002C0880F991F6A95E2F704
S1130160822B8ABB08952AB381E090E002C0880FF5
S1130170991F6A95E2F7809582238ABB08954130DE
S113018059F427B381E090E002C0880F991F6A9563
S1130190E2F7822B87BB089527B381E090E002C089
S11301A0880F991F6A95E2F78095822387BB08958B
S11301B0413059F424B381E090E002C0880F991FC4
S11301C06A95E2F7822B84BB089524B381E090E022
S11301D002C0880F991F6A95E2F78095822384BB39
S11301E00895413059F421B381E090E002C0880FB2
S11301F0991F6A95E2F7822B81BB089521B381E0B0
S113020090E002C0880F991F6A95E2F780958223D7
S113021081BB0895823419F118F4813439F00895BA
S11302208334B1F1843409F44CC00895413059F455
S11302302BB381E090E002C0880F991F6A95E2F722
S1130240822B8BBB08952BB381E090E002C0880F12
S1130250991F6A95E2F7809582238BBB08954130FC
S113026059F428B381E090E002C0880F991F6A9581
S1130270E2F7822B88BB089528B381E090E002C0A6
S1130280880F991F6A95E2F78095822388BB0895A9
S1130290413059F425B381E090E002C0880F991FE2
S11302A06A95E2F7822B85BB089525B381E090E03F
S11302B002C0880F991F6A95E2F78095822385BB57
S11302C00895413059F422B381E090E002C0880FD0
S11302D0991F6A95E2F7822B82BB089522B381E0CD
S11302E090E002C0880F991F6A95E2F780958223F7
S11302F082BB0895823459F018F4813431F00895A2
S1130300833439F0843439F008956ABB089567BBA7
S1130310089564BB089561BB0895823459F018F4BC
S1130320813431F00895833439F0843439F00895F8
S11303306BBB089568BB089565BB089562BB0895BF
S1130340813041F018F0823049F008958BB7806411
S11303508BBF08958BB780688BBF08958BB780627D
S11303608BBF0895813049F120F0823009F448C0F0
S113037008956130C1F068F0633009F053C08FB75D
S113038080688FBF85B7816085BF85B78D7F85BF46
S113039008958FB780688FBF85B78E7F85BF85B777
S11303A0826085BF08958FB780688FBF85B78160ED
S11303B085BF85B7826085BF08956130B9F060F06C
S11303C0633081F58FB780688FBF85B7846085BF40
S11303D085B7877F85BF08958FB780688FBF85B73E
S11303E08B7F85BF85B7886085BF08958FB7806888
S11303F08FBF85B7846085BF85B7886085BF089542
S1130400662319F0613041F008958FB780688FBF7B
S113041084B7806484BF08958FB780688FBF84B722
S11304208F7B84BF089541E060E084E40E940A0168
S11304308FE99FE00197F1F700C0000040E060E021
S113044084E40E940A018FE99FE00197F1F700C05C
S113045000000895682F83E40E948D0140E062E06B
S113046084E40E940A010E9413028FEC97E0019732
S1130470F1F700C0000008952FEF81EE94E02150C1
S113048080409040E1F700C0000061E083E40E94F6
S11304907A0141E060E084E40E949A0041E062E075
S11304A084E40E949A0041E061E084E40E949A009E
S11304B040E061E084E40E940A0188E30E942A0289
S11304C08FEC97E00197F1F700C000008EE00E94E6
S11304D02A028FEC97E00197F1F700C0000081E059
S11304E00E942A028FE19EE40197F1F700C0000008
S11304F086E00E942A028FEC97E00197F1F700C092
S113050000000895682F83E40E948D0141E062E0B9
S113051084E40E940A010E94130208951F93CF935A
S1130520DF93CDB7DEB72A970FB6F894DEBF0FBEC0
S1130530CDBFFC01892B99F54AC09F01ADECBCEC01
S11305400E94EA0596958795969587959695879541
S11305509C01220F331F880F991F880F991F880F42
S1130560991F820F931F9F01281B390BA1E0B0E054
S1130570AC0FBD1FA10FB11D17FDBA952C931F5FC2
S11305809F01ADECBCEC0E94EA05FC01F695E795F1
S1130590F695E795F695E7954F5F5F4F03C040E00A
S11305A050E010E0309749F61FEF140F0DC0E1E062
S11305B0F0E0EC0FFD1FE10FF11D17FDFA958081AE
S11305C0805D0E948202115011238CF704C080E3E5
S11305D08E0F0E9482022A960FB6F894DEBF0FBED9
S11305E0CDBFDF91CF911F910895CF93DF93EC019D
S11305F003C00E948202219688818111FACFDF9183
S1130600CF91089541E00E949A00089541E00E942C
S11306100A01089540E00E940A01089580E00E94C2
S113062049000E943C0267E082E40E94020382E0E7
S11306300E94A00161E082E00E94B20180E00E9479
S11306408E00BC0180E090E00E94C60420E030E00F
S113065040EA50E40E9459052AE037ED43E251E4B0
S11306600E9425046093690070936A0080936B0074
S113067090936C0020E030E048EC51E40E94540573
S113068088232CF067E082E40E9406031AC067E026
S113069082E40E940A0320E030E040E85FE36091D6
S11306A0690070916A0080916B0090916C000E94C7
S11306B0B9036093690070936A0080936B00909310
S11306C06C008091680080FF26C020E030E040E1AB
S11306D051E46091690070916A0080916B0090917F
S11306E06C000E94590520E030E040EA50E40E948A
S11306F0250420E030E040E052E40E94B903609316
S1130700690070936A0080936B0090936C0086E498
S11307108093600003C083E48093600082E00E94C1
S11307202A0281E690E00E94F502609169007091CE
S11307306A0080916B0090916C000E949704CB0139
S11307400E948E02809160000E94820277CF1F92E5
S11307500F920FB60F9211248F93809168008F5FD0
S1130760809368008F910F900FBE0F901F90189583
S11307705058BB27AA270E94D0030C941A050E9444
S11307800C0538F00E94130520F039F49F3F19F44A
S113079026F40C9409050EF4E095E7FB0C9403058C
S11307A0E92F0E942B0558F3BA17620773078407D1
S11307B0950720F079F4A6F50C944D050EF4E09518
S11307C00B2EBA2FA02D0B01B90190010C01CA0107
S11307D0A0011124FF27591B99F0593F50F4503EB2
S11307E068F11A16F040A22F232F342F4427585FA4
S11307F0F3CF469537952795A795F0405395C9F7BC
S11308007EF41F16BA0B620B730B840BBAF0915073
S1130810A1F0FF0FBB1F661F771F881FC2F70EC012
S1130820BA0F621F731F841F48F4879577956795E5
S1130830B795F7959E3F08F0B0CF9395880F08F0D1
S11308409927EE0F9795879508950E9439040C9483
S11308501A050E94130558F00E940C0540F029F473
S11308605F3F29F00C94030551110C944E050C9430
S113087009050E942B0568F39923B1F3552391F3DD
S1130880951B550BBB27AA2762177307840738F0FB
S11308909F5F5F4F220F331F441FAA1FA9F335D058
S11308A00E2E3AF0E0E832D091505040E695001C0C
S11308B0CAF72BD0FE2F29D0660F771F881FBB1FC6
S11308C0261737074807AB07B0E809F0BB0B802DA4
S11308D0BF01FF2793585F4F3AF09E3F510578F0D0
S11308E00C9403050C944E055F3FE4F3983ED4F357
S11308F0869577956795B795F7959F5FC9F7880FA4
S1130900911D9695879597F90895E1E0660F771FF5
S1130910881FBB1F621773078407BA0720F0621B86
S1130920730B840BBA0BEE1F88F7E09508950E94B1
S1130930330588F09F5798F0B92F9927B751B0F035
S1130940E1F0660F771F881F991F1AF0BA95C9F74F
S113095014C0B13091F00E944D05B1E008950C949B
S11309604D05672F782F8827B85F39F0B93FCCF34E
S1130970869577956795B395D9F73EF490958095CC
S1130980709561957F4F8F4F9F4F0895E89409C0EC
S113099097FB3EF490958095709561957F4F8F4FAE
S11309A09F4F9923A9F0F92F96E9BB279395F695C4
S11309B0879577956795B795F111F8CFFAF4BB0F42
S11309C011F460FF1BC06F5F7F4F8F4F9F4F16C0A6
S11309D0882311F096E911C0772321F09EE8872F30
S11309E0762F05C0662371F096E8862F70E060E0EC
S11309F02AF09A95660F771F881FDAF7880F969565
S1130A00879597F9089597F99F6780E870E060E00B
S1130A1008959FEF80EC089500240A941616170693
S1130A2018060906089500240A94121613061406DB
S1130A3005060895092E0394000C11F4882352F03E
S1130A40BB0F40F4BF2B11F460FF04C06F5F7F4FF6
S1130A508F4F9F4F089557FD9058440F551F59F0DD
S1130A605F3F71F04795880F97FB991F61F09F3F97
S1130A7079F087950895121613061406551FF2CFC0
S1130A804695F1DF08C0161617061806991FF1CF10
S1130A9086957105610508940895E894BB27662737
S1130AA07727CB0197F908950E94C60508F48FEFC4
S1130AB008950E946C050C941A050E940C0538F0E8
S1130AC00E94130520F0952311F00C9403050C9457
S1130AD0090511240C944E050E942B0570F3959F73
S1130AE0C1F3950F50E0551F629FF001729FBB2721
S1130AF0F00DB11D639FAA27F00DB11DAA1F649FBD
S1130B006627B00DA11D661F829F2227B00DA11D6F
S1130B10621F739FB00DA11D621F839FA00D611DF5
S1130B20221F749F3327A00D611D231F849F600D16
S1130B30211D822F762F6A2F11249F5750409AF03F
S1130B40F1F088234AF0EE0FFF1FBB1F661F771FCB
S1130B50881F91505040A9F79E3F510580F00C9496
S1130B6003050C944E055F3FE4F3983ED4F3869559
S1130B7077956795B795F795E7959F5FC1F7FE2B36
S1130B80880F911D9695879597F90895990F0008F8
S1130B90550FAA0BE0E8FEEF16161706E807F9074B
S1130BA0C0F012161306E407F50798F0621B730BE6
S1130BB0840B950B39F40A2661F0232B242B252B67
S1130BC021F408950A2609F4A140A6958FEF811D0A
S1130BD0811D0895A29FB001B39FC001A39F700D12
S1130BE0811D1124911DB29F700D811D1124911D31
S1090BF00895F894FFCF04
S10B0BF64354656D703A2000C0
S9030000FC
