:100000000C943E000C9458040C946F040C948604D9
:100010000C945B000C945B000C945B000C945B00F4
:100020000C945B000C945B000C945B000C945B00E4
:100030000C945B000C945B000C945B000C945B00D4
:100040000C945B000C945B000C945B000C945B00C4
:100050000C945B009900AD00C100D500E900FD00E3
:100060001101250139014D016E0182019601AA019C
:10007000BE01D201E601FA010E02220211241FBEC6
:10008000CFE5D8E0DEBFCDBF10E0A0E6B0E0EEECFB
:10009000FCE002C005900D92A036B107D9F720E030
:1000A000A0E6B0E001C01D92A836B207E1F70E94B9
:1000B000DB030C9465060C940000CF93C82F6111EC
:1000C00013C041E00E94880241E061E08C2F0E9451
:1000D000880241E062E08C2F0E94880241E063E0E8
:1000E0008C2F0E94880215C0613099F441E064E0D1
:1000F0000E94880241E065E08C2F0E94880241E066
:1001000066E08C2F0E94880241E067E08C2F0E94FD
:100110008802CF910895CF93C82F6111D2C050E0CB
:100120004A30510508F0A1C1FA01E65DFF4F0C9479
:100130004B0640E060E00E94F80240E061E08C2F56
:100140000E94F80240E062E08C2F0E94F80240E03A
:1001500063E08C2F0E94F80288C141E060E00E94B9
:10016000F80240E061E08C2F0E94F80240E062E07B
:100170008C2F0E94F80240E063E08C2F0E94F8026E
:1001800074C140E060E00E94F80241E061E08C2F21
:100190000E94F80240E062E08C2F0E94F80240E0EA
:1001A00063E08C2F0E94F80260C141E060E00E9491
:1001B000F80241E061E08C2F0E94F80240E062E02A
:1001C0008C2F0E94F80240E063E08C2F0E94F8021E
:1001D0004CC140E060E00E94F80240E061E08C2FFA
:1001E0000E94F80241E062E08C2F0E94F80240E099
:1001F00063E08C2F0E94F80238C141E060E00E9469
:10020000F80240E061E08C2F0E94F80241E062E0D9
:100210008C2F0E94F80240E063E08C2F0E94F802CD
:1002200024C140E060E00E94F80241E061E08C2FD0
:100230000E94F80241E062E08C2F0E94F80240E048
:1002400063E08C2F0E94F80210C141E060E00E9440
:10025000F80241E061E08C2F0E94F80241E062E088
:100260008C2F0E94F80240E063E08C2F0E94F8027D
:10027000FCC040E060E00E94F80240E061E08C2FAA
:100280000E94F80240E062E08C2F0E94F80241E0F8
:1002900063E08C2F0E94F802E8C041E060E00E9419
:1002A000F80240E061E08C2F0E94F80240E062E03A
:1002B0008C2F0E94F80241E063E08C2F0E94F8022C
:1002C000D4C0613009F0D1C050E04A30510508F087
:1002D000CCC0FA01EC5CFF4F0C944B0640E064E0AC
:1002E0000E94F80240E065E08C2F0E94F80240E096
:1002F00066E08C2F0E94F80240E067E08C2F0E949D
:10030000F802B3C041E064E00E94F80240E065E01A
:100310008C2F0E94F80240E066E08C2F0E94F802C9
:1003200040E067E08C2F0E94F8029FC040E064E04C
:100330000E94F80241E065E08C2F0E94F80240E044
:1003400066E08C2F0E94F80240E067E08C2F0E944C
:10035000F8028BC041E064E00E94F80241E065E0F1
:100360008C2F0E94F80240E066E08C2F0E94F80279
:1003700040E067E08C2F0E94F80277C040E064E024
:100380000E94F80240E065E08C2F0E94F80241E0F4
:1003900066E08C2F0E94F80240E067E08C2F0E94FC
:1003A000F80263C041E064E00E94F80240E065E0CA
:1003B0008C2F0E94F80241E066E08C2F0E94F80228
:1003C00040E067E08C2F0E94F8024FC040E064E0FC
:1003D0000E94F80241E065E08C2F0E94F80241E0A3
:1003E00066E08C2F0E94F80240E067E08C2F0E94AC
:1003F000F8023BC041E064E00E94F80241E065E0A1
:100400008C2F0E94F80241E066E08C2F0E94F802D7
:1004100040E067E08C2F0E94F80227C040E064E0D3
:100420000E94F80240E065E08C2F0E94F80240E054
:1004300066E08C2F0E94F80241E067E08C2F0E945A
:10044000F80213C041E064E00E94F80240E065E079
:100450008C2F0E94F80240E066E08C2F0E94F80288
:1004600041E067E08C2F0E94F802CF91089597B188
:10047000906497B98823B1F1813021F487B181600C
:1004800087B930C0823021F487B1826087B92AC031
:10049000833039F487B1816087B987B1826087B9C9
:1004A00021C0843021F487B1846087B91BC08530B6
:1004B00039F487B1816087B987B1846087B912C088
:1004C000863039F487B1826087B987B1846087B993
:1004D00009C087B1816087B987B1826087B987B168
:1004E000846087B986B1806886B986B1846086B930
:1004F00086B1826086B9089586B1806486B93699DE
:10050000FECF24B185B190E0982F8827822B0895E3
:10051000823419F118F4813439F008958334B1F13B
:10052000843409F44CC00895413059F42AB381E071
:1005300090E002C0880F991F6A95E2F7822B8ABB70
:1005400008952AB381E090E002C0880F991F6A9550
:10055000E2F7809582238ABB0895413059F427B38E
:1005600081E090E002C0880F991F6A95E2F7822B24
:1005700087BB089527B381E090E002C0880F991FE0
:100580006A95E2F78095822387BB0895413059F43C
:1005900024B381E090E002C0880F991F6A95E2F7CA
:1005A000822B84BB089524B381E090E002C0880FC1
:1005B000991F6A95E2F78095822384BB08954130A4
:1005C00059F421B381E090E002C0880F991F6A9529
:1005D000E2F7822B81BB089521B381E090E002C055
:1005E000880F991F6A95E2F78095822381BB089551
:1005F000823419F118F4813439F008958334B1F15B
:10060000843409F44CC00895413059F42BB381E08F
:1006100090E002C0880F991F6A95E2F7822B8BBB8E
:1006200008952BB381E090E002C0880F991F6A956E
:10063000E2F7809582238BBB0895413059F428B3AB
:1006400081E090E002C0880F991F6A95E2F7822B43
:1006500088BB089528B381E090E002C0880F991FFD
:100660006A95E2F78095822388BB0895413059F45A
:1006700025B381E090E002C0880F991F6A95E2F7E8
:10068000822B85BB089525B381E090E002C0880FDE
:10069000991F6A95E2F78095822385BB08954130C2
:1006A00059F422B381E090E002C0880F991F6A9547
:1006B000E2F7822B82BB089522B381E090E002C072
:1006C000880F991F6A95E2F78095822382BB08956F
:1006D000813041F018F0823049F008958BB7806482
:1006E0008BBF08958BB780688BBF08958BB78062EE
:1006F0008BBF0895813049F120F0823009F448C061
:1007000008956130C1F068F0633009F053C08FB7CD
:1007100080688FBF85B7816085BF85B78D7F85BFB6
:1007200008958FB780688FBF85B78E7F85BF85B7E7
:10073000826085BF08958FB780688FBF85B781605D
:1007400085BF85B7826085BF08956130B9F060F0DC
:10075000633081F58FB780688FBF85B7846085BFB0
:1007600085B7877F85BF08958FB780688FBF85B7AE
:100770008B7F85BF85B7886085BF08958FB78068F8
:100780008FBF85B7846085BF85B7886085BF0895B2
:10079000662319F0613041F008958FB780688FBFEC
:1007A00084B7806484BF08958FB780688FBF84B793
:1007B0008F7B84BF089580E00E94370280E00E9412
:1007C000680361E080E00E947A0381E00E94680390
:1007D00061E081E00E947A0382E00E94680361E0A8
:1007E00082E00E947A0360E083E40E945D0061E0A1
:1007F00083E40E945D0080E00E947C02BC0180E0F6
:1008000090E00E943C0560936400709365008093C3
:1008100066009093670080E00E947C022091600057
:100820003091610082179307D1F020E030EC4FE760
:1008300054E460916400709165008091660090912D
:1008400067000E94940420E030E046EC52E40E94ED
:10085000CA050E9406057093630060936200609170
:1008600064007091650080916600909167000E941D
:100870000605709361006093600080916200909122
:100880006300CAE0D0E0BE010E943706482F60E056
:1008900083E40E948B008091620090916300BE010E
:1008A0000E943706462F61E083E40E948B00A3CFAD
:1008B0001F920F920FB60F9211248F939F938091E6
:1008C00062009091630001969093630080936200B0
:1008D0009F918F910F900FBE0F901F9018951F92B0
:1008E0000F920FB60F9211248F939F938091620005
:1008F00090916300019790936300809362009F91B1
:100900008F910F900FBE0F901F9018951F920F920E
:100910000FB60F92112410926300109262000F9094
:100920000FBE0F901F9018950E94A8040C9490057C
:100930000E94890558F00E94820540F029F45F3F2B
:1009400029F00C94790551110C94C4050C947F0581
:100950000E94A10568F39923B1F3552391F3951BE8
:10096000550BBB27AA2762177307840738F09F5FD0
:100970005F4F220F331F441FAA1FA9F335D00E2E3D
:100980003AF0E0E832D091505040E695001CCAF7AA
:100990002BD0FE2F29D0660F771F881FBB1F26176D
:1009A00037074807AB07B0E809F0BB0B802DBF0144
:1009B000FF2793585F4F3AF09E3F510578F00C9413
:1009C00079050C94C4055F3FE4F3983ED4F3869513
:1009D00077956795B795F7959F5FC9F7880F911D34
:1009E0009695879597F90895E1E0660F771F881F20
:1009F000BB1F621773078407BA0720F0621B730BD3
:100A0000840BBA0BEE1F88F7E09508950E940D0540
:100A10006894B1110C94C40508950E94A90588F04A
:100A20009F5798F0B92F9927B751B0F0E1F0660FB2
:100A3000771F881F991F1AF0BA95C9F714C0B130F3
:100A400091F00E94C305B1E008950C94C305672F8F
:100A5000782F8827B85F39F0B93FCCF38695779522
:100A60006795B395D9F73EF490958095709561950B
:100A70007F4F8F4F9F4F0895E89409C097FB3EF436
:100A800090958095709561957F4F8F4F9F4F9923DB
:100A9000A9F0F92F96E9BB279395F6958795779559
:100AA0006795B795F111F8CFFAF4BB0F11F460FF19
:100AB0001BC06F5F7F4F8F4F9F4F16C0882311F071
:100AC00096E911C0772321F09EE8872F762F05C085
:100AD000662371F096E8862F70E060E02AF09A9520
:100AE000660F771F881FDAF7880F9695879597F915
:100AF000089597F99F6780E870E060E008959FEFA0
:100B000080EC089500240A941616170618060906A4
:100B1000089500240A941216130614060506089573
:100B2000092E0394000C11F4882352F0BB0F40F4FB
:100B3000BF2B11F460FF04C06F5F7F4F8F4F9F4F3B
:100B4000089557FD9058440F551F59F05F3F71F0BD
:100B50004795880F97FB991F61F09F3F79F0879524
:100B60000895121613061406551FF2CF4695F1DFAD
:100B700008C0161617061806991FF1CF869571053D
:100B8000610508940895E894BB2766277727CB0171
:100B900097F908950E94DD050C9490050E94820546
:100BA00038F00E94890520F0952311F00C94790506
:100BB0000C947F0511240C94C4050E94A10570F3C8
:100BC000959FC1F3950F50E0551F629FF001729FF2
:100BD000BB27F00DB11D639FAA27F00DB11DAA1F01
:100BE000649F6627B00DA11D661F829F2227B00D4E
:100BF000A11D621F739FB00DA11D621F839FA00DD9
:100C0000611D221F749F3327A00D611D231F849F28
:100C1000600D211D822F762F6A2F11249F5750407F
:100C20009AF0F1F088234AF0EE0FFF1FBB1F661FFA
:100C3000771F881F91505040A9F79E3F510580F0C3
:100C40000C9479050C94C4055F3FE4F3983ED4F30B
:100C5000869577956795B795F795E7959F5FC1F767
:100C6000FE2B880F911D9695879597F9089597FB10
:100C7000072E16F4009407D077FD09D00E94510684
:100C800007FC05D03EF4909581959F4F089570958F
:100C900061957F4F0895EE0FFF1F0590F491E02DB1
:100CA0000994AA1BBB1B51E107C0AA1FBB1FA617B3
:100CB000B70710F0A61BB70B881F991F5A95A9F705
:0E0CC00080959095BC01CD010895F894FFCF6A
:00000001FF
